{
  "contractName": "TodoList",
  "abi": [
    {
      "inputs": [],
      "name": "taskCount",
      "outputs": [
        {
          "internalType": "uint256",
          "name": "",
          "type": "uint256"
        }
      ],
      "stateMutability": "view",
      "type": "function",
      "constant": true
    }
  ],
  "bytecode": "0x60806040526000805534801561001457600080fd5b5060b3806100236000396000f3fe6080604052348015600f57600080fd5b506004361060285760003560e01c8063b6cb58a514602d575b600080fd5b60336047565b604051603e91906064565b60405180910390f35b60005481565b6000819050919050565b605e81604d565b82525050565b6000602082019050607760008301846057565b9291505056fea26469706673582212200fbb9fe414ee0024c3196b6832e1608370d60685fe9fb9b7c0af6370046ab19264736f6c634300080a0033",
  "immutableReferences": {},
  "source": "// SPDX-License-Identifier: MIT\r\npragma solidity >=0.4.22 <0.9.0;\r\n\r\ncontract TodoList{\r\n    uint public taskCount = 0;\r\n\r\n\r\n\r\n}",
  "sourcePath": "N:\\Solidity Projects\\eth-Todo-list\\contracts\\TodoList.sol",
  "compiler": {
    "name": "solc",
    "version": "0.8.10+commit.fc410830.Emscripten.clang"
  },
  "schemaVersion": "3.4.4",
  "updatedAt": "2022-01-04T16:53:25.595Z",
  "networkType": "ethereum",
  "devdoc": {
    "kind": "dev",
    "methods": {},
    "version": 1
  },
  "userdoc": {
    "kind": "user",
    "methods": {},
    "version": 1
  }
}